{
  "contractName": "StartupTracker",
  "abi": [
    {
      "inputs": [
        {
          "internalType": "string",
          "name": "_name",
          "type": "string"
        }
      ],
      "name": "registerStartup",
      "outputs": [],
      "stateMutability": "nonpayable",
      "type": "function"
    },
    {
      "inputs": [
        {
          "internalType": "string",
          "name": "_description",
          "type": "string"
        }
      ],
      "name": "addActivity",
      "outputs": [],
      "stateMutability": "nonpayable",
      "type": "function"
    },
    {
      "inputs": [
        {
          "internalType": "address",
          "name": "_founder",
          "type": "address"
        }
      ],
      "name": "getStartup",
      "outputs": [
        {
          "components": [
            {
              "internalType": "string",
              "name": "name",
              "type": "string"
            },
            {
              "internalType": "uint256[]",
              "name": "activityIndices",
              "type": "uint256[]"
            },
            {
              "internalType": "address",
              "name": "founder",
              "type": "address"
            }
          ],
          "internalType": "struct StartupTracker.Startup",
          "name": "",
          "type": "tuple"
        }
      ],
      "stateMutability": "view",
      "type": "function"
    }
  ],
  "bytecode": "0x608060405234801561001057600080fd5b50610cea806100206000396000f3fe608060405234801561001057600080fd5b50600436106100415760003560e01c80634ed943db14610046578063b841e45a14610062578063c6fa59921461007e575b600080fd5b610060600480360381019061005b9190610848565b6100ae565b005b61007c60048036038101906100779190610848565b6102bd565b005b610098600480360381019061009391906108ef565b61042f565b6040516100a59190610ad2565b60405180910390f35b600073ffffffffffffffffffffffffffffffffffffffff166000803373ffffffffffffffffffffffffffffffffffffffff1673ffffffffffffffffffffffffffffffffffffffff16815260200190815260200160002060020160009054906101000a900473ffffffffffffffffffffffffffffffffffffffff1673ffffffffffffffffffffffffffffffffffffffff161461017e576040517f08c379a000000000000000000000000000000000000000000000000000000000815260040161017590610b51565b60405180910390fd5b6040518060600160405280828152602001600067ffffffffffffffff8111156101aa576101a961071d565b5b6040519080825280602002602001820160405280156101d85781602001602082028036833780820191505090505b5081526020013373ffffffffffffffffffffffffffffffffffffffff168152506000803373ffffffffffffffffffffffffffffffffffffffff1673ffffffffffffffffffffffffffffffffffffffff16815260200190815260200160002060008201518160000190805190602001906102529291906105c7565b50602082015181600101908051906020019061026f92919061064d565b5060408201518160020160006101000a81548173ffffffffffffffffffffffffffffffffffffffff021916908373ffffffffffffffffffffffffffffffffffffffff16021790555090505050565b60008060003373ffffffffffffffffffffffffffffffffffffffff1673ffffffffffffffffffffffffffffffffffffffff1681526020019081526020016000209050600073ffffffffffffffffffffffffffffffffffffffff168160020160009054906101000a900473ffffffffffffffffffffffffffffffffffffffff1673ffffffffffffffffffffffffffffffffffffffff1603610392576040517f08c379a000000000000000000000000000000000000000000000000000000000815260040161038990610bbd565b60405180910390fd5b6040518060400160405280428152602001838152506001600060025481526020019081526020016000206000820151816000015560208201518160010190805190602001906103e29291906105c7565b509050508060010160025490806001815401808255809150506001900390600052602060002001600090919091909150556002600081548092919061042690610c0c565b91905055505050565b61043761069a565b6000808373ffffffffffffffffffffffffffffffffffffffff1673ffffffffffffffffffffffffffffffffffffffff16815260200190815260200160002060405180606001604052908160008201805461049090610c83565b80601f01602080910402602001604051908101604052809291908181526020018280546104bc90610c83565b80156105095780601f106104de57610100808354040283529160200191610509565b820191906000526020600020905b8154815290600101906020018083116104ec57829003601f168201915b505050505081526020016001820180548060200260200160405190810160405280929190818152602001828054801561056157602002820191906000526020600020905b81548152602001906001019080831161054d575b505050505081526020016002820160009054906101000a900473ffffffffffffffffffffffffffffffffffffffff1673ffffffffffffffffffffffffffffffffffffffff1673ffffffffffffffffffffffffffffffffffffffff16815250509050919050565b8280546105d390610c83565b90600052602060002090601f0160209004810192826105f5576000855561063c565b82601f1061060e57805160ff191683800117855561063c565b8280016001018555821561063c579182015b8281111561063b578251825591602001919060010190610620565b5b50905061064991906106d1565b5090565b828054828255906000526020600020908101928215610689579160200282015b8281111561068857825182559160200191906001019061066d565b5b50905061069691906106d1565b5090565b60405180606001604052806060815260200160608152602001600073ffffffffffffffffffffffffffffffffffffffff1681525090565b5b808211156106ea5760008160009055506001016106d2565b5090565b6000604051905090565b600080fd5b600080fd5b600080fd5b600080fd5b6000601f19601f8301169050919050565b7f4e487b7100000000000000000000000000000000000000000000000000000000600052604160045260246000fd5b6107558261070c565b810181811067ffffffffffffffff821117156107745761077361071d565b5b80604052505050565b60006107876106ee565b9050610793828261074c565b919050565b600067ffffffffffffffff8211156107b3576107b261071d565b5b6107bc8261070c565b9050602081019050919050565b82818337600083830152505050565b60006107eb6107e684610798565b61077d565b90508281526020810184848401111561080757610806610707565b5b6108128482856107c9565b509392505050565b600082601f83011261082f5761082e610702565b5b813561083f8482602086016107d8565b91505092915050565b60006020828403121561085e5761085d6106f8565b5b600082013567ffffffffffffffff81111561087c5761087b6106fd565b5b6108888482850161081a565b91505092915050565b600073ffffffffffffffffffffffffffffffffffffffff82169050919050565b60006108bc82610891565b9050919050565b6108cc816108b1565b81146108d757600080fd5b50565b6000813590506108e9816108c3565b92915050565b600060208284031215610905576109046106f8565b5b6000610913848285016108da565b91505092915050565b600081519050919050565b600082825260208201905092915050565b60005b8381101561095657808201518184015260208101905061093b565b83811115610965576000848401525b50505050565b60006109768261091c565b6109808185610927565b9350610990818560208601610938565b6109998161070c565b840191505092915050565b600081519050919050565b600082825260208201905092915050565b6000819050602082019050919050565b6000819050919050565b6109e3816109d0565b82525050565b60006109f583836109da565b60208301905092915050565b6000602082019050919050565b6000610a19826109a4565b610a2381856109af565b9350610a2e836109c0565b8060005b83811015610a5f578151610a4688826109e9565b9750610a5183610a01565b925050600181019050610a32565b5085935050505092915050565b610a75816108b1565b82525050565b60006060830160008301518482036000860152610a98828261096b565b91505060208301518482036020860152610ab28282610a0e565b9150506040830151610ac76040860182610a6c565b508091505092915050565b60006020820190508181036000830152610aec8184610a7b565b905092915050565b600082825260208201905092915050565b7f5374617274757020616c72656164792072656769737465726564000000000000600082015250565b6000610b3b601a83610af4565b9150610b4682610b05565b602082019050919050565b60006020820190508181036000830152610b6a81610b2e565b9050919050565b7f53746172747570206e6f74207265676973746572656400000000000000000000600082015250565b6000610ba7601683610af4565b9150610bb282610b71565b602082019050919050565b60006020820190508181036000830152610bd681610b9a565b9050919050565b7f4e487b7100000000000000000000000000000000000000000000000000000000600052601160045260246000fd5b6000610c17826109d0565b91507fffffffffffffffffffffffffffffffffffffffffffffffffffffffffffffffff8203610c4957610c48610bdd565b5b600182019050919050565b7f4e487b7100000000000000000000000000000000000000000000000000000000600052602260045260246000fd5b60006002820490506001821680610c9b57607f821691505b602082108103610cae57610cad610c54565b5b5091905056fea2646970667358221220a721803a54584eb70c03805608953c953995295e97c61ae4698e5c929db33b9e64736f6c634300080d0033",
  "immutableReferences": {},
  "source": "// SPDX-License-Identifier: MIT\npragma solidity ^0.8.13;\n\ncontract StartupTracker {\n    struct Activity {\n        uint256 date;\n        string description;\n    }\n\n    struct Startup {\n        string name;\n        uint256[] activityIndices;\n        address founder;\n    }\n\n    mapping(address => Startup) startups;\n    mapping(uint256 => Activity) activities;\n    uint256 activityCounter;\n\n    function registerStartup(string memory _name) public {\n        require(startups[msg.sender].founder == address(0), \"Startup already registered\");\n        startups[msg.sender] = Startup(_name, new uint256[](0), msg.sender);\n    }\n\n    function addActivity(string memory _description) public {\n        Startup storage startup = startups[msg.sender];\n        require(startup.founder != address(0), \"Startup not registered\");\n        activities[activityCounter] = Activity(block.timestamp, _description);\n        startup.activityIndices.push(activityCounter);\n        activityCounter++;\n    }\n\n    function getStartup(address _founder) public view returns (Startup memory) {\n        return startups[_founder];\n    }\n}\n",
  "sourcePath": "/Users/soham/Coding/hackbangalore/backend/truffle-contract/contracts/StartupActivityTracker.sol",
  "compiler": {
    "name": "solc",
    "version": "0.8.13+commit.abaa5c0e.Emscripten.clang"
  },
  "schemaVersion": "3.4.16",
  "updatedAt": "2024-05-11T21:18:08.877Z",
  "devdoc": {
    "kind": "dev",
    "methods": {},
    "version": 1
  },
  "userdoc": {
    "kind": "user",
    "methods": {},
    "version": 1
  }
}