{
  "contractName": "StartupActivityTracker",
  "abi": [
    {
      "anonymous": false,
      "inputs": [
        {
          "indexed": true,
          "internalType": "address",
          "name": "founder",
          "type": "address"
        },
        {
          "indexed": false,
          "internalType": "string",
          "name": "title",
          "type": "string"
        },
        {
          "indexed": false,
          "internalType": "uint256",
          "name": "date",
          "type": "uint256"
        },
        {
          "indexed": false,
          "internalType": "string",
          "name": "activityType",
          "type": "string"
        }
      ],
      "name": "ActivityAdded",
      "type": "event"
    },
    {
      "anonymous": false,
      "inputs": [
        {
          "indexed": true,
          "internalType": "address",
          "name": "founder",
          "type": "address"
        },
        {
          "indexed": false,
          "internalType": "string",
          "name": "name",
          "type": "string"
        }
      ],
      "name": "StartupRegistered",
      "type": "event"
    },
    {
      "inputs": [
        {
          "internalType": "string",
          "name": "name",
          "type": "string"
        }
      ],
      "name": "registerStartup",
      "outputs": [],
      "stateMutability": "nonpayable",
      "type": "function"
    },
    {
      "inputs": [
        {
          "internalType": "string",
          "name": "title",
          "type": "string"
        },
        {
          "internalType": "string",
          "name": "description",
          "type": "string"
        },
        {
          "internalType": "uint256",
          "name": "date",
          "type": "uint256"
        },
        {
          "internalType": "string",
          "name": "activityType",
          "type": "string"
        }
      ],
      "name": "addActivity",
      "outputs": [],
      "stateMutability": "nonpayable",
      "type": "function"
    },
    {
      "inputs": [
        {
          "internalType": "address",
          "name": "founder",
          "type": "address"
        }
      ],
      "name": "getStartup",
      "outputs": [
        {
          "components": [
            {
              "internalType": "string",
              "name": "name",
              "type": "string"
            },
            {
              "internalType": "address",
              "name": "founder",
              "type": "address"
            },
            {
              "internalType": "uint256[]",
              "name": "activityIndices",
              "type": "uint256[]"
            }
          ],
          "internalType": "struct StartupActivityTracker.Startup",
          "name": "",
          "type": "tuple"
        }
      ],
      "stateMutability": "view",
      "type": "function"
    },
    {
      "inputs": [
        {
          "internalType": "uint256",
          "name": "index",
          "type": "uint256"
        }
      ],
      "name": "getActivity",
      "outputs": [
        {
          "components": [
            {
              "internalType": "string",
              "name": "title",
              "type": "string"
            },
            {
              "internalType": "string",
              "name": "description",
              "type": "string"
            },
            {
              "internalType": "uint256",
              "name": "date",
              "type": "uint256"
            },
            {
              "internalType": "string",
              "name": "activityType",
              "type": "string"
            }
          ],
          "internalType": "struct StartupActivityTracker.Activity",
          "name": "",
          "type": "tuple"
        }
      ],
      "stateMutability": "view",
      "type": "function"
    }
  ],
  "bytecode": "0x608060405234801561000f575f80fd5b506111958061001d5f395ff3fe608060405234801561000f575f80fd5b506004361061004a575f3560e01c80634ed943db1461004e578063922635d81461006a578063c6fa59921461009a578063fe74e3b3146100ca575b5f80fd5b61006860048036038101906100639190610944565b6100e6565b005b610084600480360381019061007f91906109be565b610266565b6040516100919190610ae0565b60405180910390f35b6100b460048036038101906100af9190610b5a565b61044a565b6040516100c19190610c90565b60405180910390f35b6100e460048036038101906100df9190610cb0565b6105da565b005b60405180606001604052808281526020013373ffffffffffffffffffffffffffffffffffffffff1681526020015f67ffffffffffffffff81111561012d5761012c610820565b5b60405190808252806020026020018201604052801561015b5781602001602082028036833780820191505090505b508152505f803373ffffffffffffffffffffffffffffffffffffffff1673ffffffffffffffffffffffffffffffffffffffff1681526020019081526020015f205f820151815f0190816101ae9190610f62565b506020820151816001015f6101000a81548173ffffffffffffffffffffffffffffffffffffffff021916908373ffffffffffffffffffffffffffffffffffffffff1602179055506040820151816002019080519060200190610211929190610734565b509050503373ffffffffffffffffffffffffffffffffffffffff167fee0f37ff49ffabe8e616c291af6ae8f83b33c79e076eae8f4ae1519f052ae3228260405161025b9190611079565b60405180910390a250565b61026e61077f565b60015f8381526020019081526020015f206040518060800160405290815f8201805461029990610d95565b80601f01602080910402602001604051908101604052809291908181526020018280546102c590610d95565b80156103105780601f106102e757610100808354040283529160200191610310565b820191905f5260205f20905b8154815290600101906020018083116102f357829003601f168201915b5050505050815260200160018201805461032990610d95565b80601f016020809104026020016040519081016040528092919081815260200182805461035590610d95565b80156103a05780601f10610377576101008083540402835291602001916103a0565b820191905f5260205f20905b81548152906001019060200180831161038357829003601f168201915b50505050508152602001600282015481526020016003820180546103c390610d95565b80601f01602080910402602001604051908101604052809291908181526020018280546103ef90610d95565b801561043a5780601f106104115761010080835404028352916020019161043a565b820191905f5260205f20905b81548152906001019060200180831161041d57829003601f168201915b5050505050815250509050919050565b6104526107a6565b5f808373ffffffffffffffffffffffffffffffffffffffff1673ffffffffffffffffffffffffffffffffffffffff1681526020019081526020015f206040518060600160405290815f820180546104a890610d95565b80601f01602080910402602001604051908101604052809291908181526020018280546104d490610d95565b801561051f5780601f106104f65761010080835404028352916020019161051f565b820191905f5260205f20905b81548152906001019060200180831161050257829003601f168201915b50505050508152602001600182015f9054906101000a900473ffffffffffffffffffffffffffffffffffffffff1673ffffffffffffffffffffffffffffffffffffffff1673ffffffffffffffffffffffffffffffffffffffff168152602001600282018054806020026020016040519081016040528092919081815260200182805480156105ca57602002820191905f5260205f20905b8154815260200190600101908083116105b6575b5050505050815250509050919050565b5f805f3373ffffffffffffffffffffffffffffffffffffffff1673ffffffffffffffffffffffffffffffffffffffff1681526020019081526020015f20905060405180608001604052808681526020018581526020018481526020018381525060015f60025481526020019081526020015f205f820151815f0190816106609190610f62565b5060208201518160010190816106769190610f62565b506040820151816002015560608201518160030190816106969190610f62565b5090505080600201600254908060018154018082558091505060019003905f5260205f20015f90919091909150553373ffffffffffffffffffffffffffffffffffffffff167ff2bd8b33a8042352f85cadf2d186059d9a93440b1a7951d717d53e2c73c7be0186858560405161070e939291906110a8565b60405180910390a260025f81548092919061072890611118565b91905055505050505050565b828054828255905f5260205f2090810192821561076e579160200282015b8281111561076d578251825591602001919060010190610752565b5b50905061077b91906107dc565b5090565b604051806080016040528060608152602001606081526020015f8152602001606081525090565b6040518060600160405280606081526020015f73ffffffffffffffffffffffffffffffffffffffff168152602001606081525090565b5b808211156107f3575f815f9055506001016107dd565b5090565b5f604051905090565b5f80fd5b5f80fd5b5f80fd5b5f80fd5b5f601f19601f8301169050919050565b7f4e487b71000000000000000000000000000000000000000000000000000000005f52604160045260245ffd5b61085682610810565b810181811067ffffffffffffffff8211171561087557610874610820565b5b80604052505050565b5f6108876107f7565b9050610893828261084d565b919050565b5f67ffffffffffffffff8211156108b2576108b1610820565b5b6108bb82610810565b9050602081019050919050565b828183375f83830152505050565b5f6108e86108e384610898565b61087e565b9050828152602081018484840111156109045761090361080c565b5b61090f8482856108c8565b509392505050565b5f82601f83011261092b5761092a610808565b5b813561093b8482602086016108d6565b91505092915050565b5f6020828403121561095957610958610800565b5b5f82013567ffffffffffffffff81111561097657610975610804565b5b61098284828501610917565b91505092915050565b5f819050919050565b61099d8161098b565b81146109a7575f80fd5b50565b5f813590506109b881610994565b92915050565b5f602082840312156109d3576109d2610800565b5b5f6109e0848285016109aa565b91505092915050565b5f81519050919050565b5f82825260208201905092915050565b5f5b83811015610a20578082015181840152602081019050610a05565b5f8484015250505050565b5f610a35826109e9565b610a3f81856109f3565b9350610a4f818560208601610a03565b610a5881610810565b840191505092915050565b610a6c8161098b565b82525050565b5f608083015f8301518482035f860152610a8c8282610a2b565b91505060208301518482036020860152610aa68282610a2b565b9150506040830151610abb6040860182610a63565b5060608301518482036060860152610ad38282610a2b565b9150508091505092915050565b5f6020820190508181035f830152610af88184610a72565b905092915050565b5f73ffffffffffffffffffffffffffffffffffffffff82169050919050565b5f610b2982610b00565b9050919050565b610b3981610b1f565b8114610b43575f80fd5b50565b5f81359050610b5481610b30565b92915050565b5f60208284031215610b6f57610b6e610800565b5b5f610b7c84828501610b46565b91505092915050565b610b8e81610b1f565b82525050565b5f81519050919050565b5f82825260208201905092915050565b5f819050602082019050919050565b5f610bc88383610a63565b60208301905092915050565b5f602082019050919050565b5f610bea82610b94565b610bf48185610b9e565b9350610bff83610bae565b805f5b83811015610c2f578151610c168882610bbd565b9750610c2183610bd4565b925050600181019050610c02565b5085935050505092915050565b5f606083015f8301518482035f860152610c568282610a2b565b9150506020830151610c6b6020860182610b85565b5060408301518482036040860152610c838282610be0565b9150508091505092915050565b5f6020820190508181035f830152610ca88184610c3c565b905092915050565b5f805f8060808587031215610cc857610cc7610800565b5b5f85013567ffffffffffffffff811115610ce557610ce4610804565b5b610cf187828801610917565b945050602085013567ffffffffffffffff811115610d1257610d11610804565b5b610d1e87828801610917565b9350506040610d2f878288016109aa565b925050606085013567ffffffffffffffff811115610d5057610d4f610804565b5b610d5c87828801610917565b91505092959194509250565b7f4e487b71000000000000000000000000000000000000000000000000000000005f52602260045260245ffd5b5f6002820490506001821680610dac57607f821691505b602082108103610dbf57610dbe610d68565b5b50919050565b5f819050815f5260205f209050919050565b5f6020601f8301049050919050565b5f82821b905092915050565b5f60088302610e217fffffffffffffffffffffffffffffffffffffffffffffffffffffffffffffffff82610de6565b610e2b8683610de6565b95508019841693508086168417925050509392505050565b5f819050919050565b5f610e66610e61610e5c8461098b565b610e43565b61098b565b9050919050565b5f819050919050565b610e7f83610e4c565b610e93610e8b82610e6d565b848454610df2565b825550505050565b5f90565b610ea7610e9b565b610eb2818484610e76565b505050565b5b81811015610ed557610eca5f82610e9f565b600181019050610eb8565b5050565b601f821115610f1a57610eeb81610dc5565b610ef484610dd7565b81016020851015610f03578190505b610f17610f0f85610dd7565b830182610eb7565b50505b505050565b5f82821c905092915050565b5f610f3a5f1984600802610f1f565b1980831691505092915050565b5f610f528383610f2b565b9150826002028217905092915050565b610f6b826109e9565b67ffffffffffffffff811115610f8457610f83610820565b5b610f8e8254610d95565b610f99828285610ed9565b5f60209050601f831160018114610fca575f8415610fb8578287015190505b610fc28582610f47565b865550611029565b601f198416610fd886610dc5565b5f5b82811015610fff57848901518255600182019150602085019450602081019050610fda565b8683101561101c5784890151611018601f891682610f2b565b8355505b6001600288020188555050505b505050505050565b5f82825260208201905092915050565b5f61104b826109e9565b6110558185611031565b9350611065818560208601610a03565b61106e81610810565b840191505092915050565b5f6020820190508181035f8301526110918184611041565b905092915050565b6110a28161098b565b82525050565b5f6060820190508181035f8301526110c08186611041565b90506110cf6020830185611099565b81810360408301526110e18184611041565b9050949350505050565b7f4e487b71000000000000000000000000000000000000000000000000000000005f52601160045260245ffd5b5f6111228261098b565b91507fffffffffffffffffffffffffffffffffffffffffffffffffffffffffffffffff8203611154576111536110eb565b5b60018201905091905056fea2646970667358221220ee6f4e189f22aefdfdb126e38042c484db1fa4d619ffbe366efabbcf7046cbc864736f6c63430008150033",
  "immutableReferences": {},
  "source": "// SPDX-License-Identifier: MIT\npragma solidity ^0.8.20;\n\ncontract StartupActivityTracker {\n    struct Activity {\n        string title;\n        string description;\n        uint256 date;\n        string activityType;\n    }\n\n    struct Startup {\n        string name;\n        address founder;\n        uint256[] activityIndices;\n    }\n\n    mapping(address => Startup) startups;\n    mapping(uint256 => Activity) activities;\n    uint256 activityCounter;\n\n    event StartupRegistered(address indexed founder, string name);\n    event ActivityAdded(address indexed founder, string title, uint256 date, string activityType);\n\n    function registerStartup(string memory name) public {\n        // require(startups[msg.sender].founder == address(0), \"Startup already registered\");\n        startups[msg.sender] = Startup(name, msg.sender, new uint256[](0));\n        emit StartupRegistered(msg.sender, name);\n    }\n\n    function addActivity(string memory title, string memory description, uint256 date, string memory activityType) public {\n        Startup storage startup = startups[msg.sender];\n        // require(startup.founder != address(0), \"Startup not registered\");\n        activities[activityCounter] = Activity(title, description, date, activityType);\n        startup.activityIndices.push(activityCounter);\n        emit ActivityAdded(msg.sender, title, date, activityType);\n        activityCounter++;\n    }\n\n    function getStartup(address founder) public view returns (Startup memory) {\n        return startups[founder];\n    }\n\n    function getActivity(uint256 index) public view returns (Activity memory) {\n        return activities[index];\n    }\n}\n",
  "sourcePath": "/Users/soham/Coding/hackbangalore/backend/truffle-contract/contracts/StartupActivityTracker.sol",
  "compiler": {
    "name": "solc",
    "version": "0.8.21+commit.d9974bed.Emscripten.clang"
  },
  "schemaVersion": "3.4.16",
  "updatedAt": "2024-05-11T20:58:31.574Z",
  "devdoc": {
    "kind": "dev",
    "methods": {},
    "version": 1
  },
  "userdoc": {
    "kind": "user",
    "methods": {},
    "version": 1
  }
}